:020000040800F2
:10000000002000209D4700084B3C00084D3C0008A4
:1000100000000000000000000000000000000000E0
:100020000000000000000000000000004F3C00083D
:100030000000000000000000513C0008533C000894
:10004000ED470008ED4700085D3C0008ED4700085B
:10005000ED470008993C0008B13C0008ED47000856
:1000600000000000ED470008ED470008ED470008DC
:10007000ED470008ED47000800000000ED470008CC
:100080000000000000000000000000000000000070
:10009000ED47000800000000ED470008ED470008AC
:1000A00000000000ED470008000000000000000014
:1000B000D93C0008ED4700080000000000000000E7
:10010000020214000909000200004110640000000E
:10011000881300000A000000010000000000000039
:100120000000004457313030302044657669636503
:10013000204472697665722056657273696F6E200D
:1001400030352E30312E303100000000000000002C
:10015000000000000000000000000000000000009F
:04016000000000009B
:1001640010B5064C2378002B07D1054B002B02D089
:10017400044800E000BF0123237010BD00020020EA
:1001840000000000505B0008044B10B5002B03D0A6
:100194000349044800E000BF10BDC0460000000051
:1001A40004020020505B000802B47146490849006B
:1001B400095C49008E4402BC7047C04600224308D3
:1001C4008B4274D303098B425FD3030A8B4244D31B
:1001D400030B8B4228D3030C8B420DD3FF2209025D
:1001E40012BA030C8B4202D31212090265D0030B1C
:1001F4008B4219D300E0090AC30B8B4201D3CB0312
:10020400C01A5241830B8B4201D38B03C01A524153
:10021400430B8B4201D34B03C01A5241030B8B4255
:1002240001D30B03C01A5241C30A8B4201D3CB0240
:10023400C01A5241830A8B4201D38B02C01A524125
:10024400430A8B4201D34B02C01A5241030A8B4228
:1002540001D30B02C01A5241CDD2C3098B4201D340
:10026400CB01C01A524183098B4201D38B01C01ABE
:10027400524143098B4201D34B01C01A5241030935
:100284008B4201D30B01C01A5241C3088B4201D3E4
:10029400CB00C01A524183088B4201D38B00C01A91
:1002A400524143088B4201D34B00C01A5241411AB8
:1002B40000D20146524110467047FFE701B50020C5
:1002C40000F006F802BDC0460029F7D076E7704773
:1002D4007047C046F0B54F464646D6460C00090363
:1002E400C0B5490A470F5E0039431F03DB0F9C4624
:1002F40065007B0A570F1F436D0DE40F760DA14671
:10030400C000B846D200AB1B64457BD0002B5FDD38
:10031400002E00D0A4E03E00164300D112E15E1E80
:10032400002E00D09EE1871A4346B8428041012541
:10033400C91A4042091A0B0200D431E149024E0A9B
:10034400002E00D16EE1300000F0C2FD0300083B36
:100354001F2B00DD61E120223900D21A9E40D140DA
:100364009F400E439D4200DD51E15D1B6B1C1F2B22
:1003740000DD7CE12021C91A3D0030008F40884017
:10038400DD40791E8F41310007222843D9400025E2
:1003940007433A40002A09D00F233B40042B05D0E1
:1003A4003B1DBB42BF417F42C9191F000B0200D451
:1003B40026E26A1CC64B55056D0D9A4200D106E132
:1003C400C44AFF080A40530752023B43120B8EE013
:1003D400002B00D0B8E06B1C5B055B0D012B00DC2F
:1003E40030E1871A4346B842B641CB1A76429E1B87
:1003F400330200D54CE13B003343A1D10022002459
:10040400002570E0002B00DCE5E0002E00D183E045
:10041400AF4EB54260D0802636043743B846382BF9
:1004240000DC3EE1434613431F007A1E97413F1808
:1004340087428041404209180B0200D4B0E0A44B2B
:1004440001359D4200D1C3E0A24A7B080A40012144
:100454000F401F435108D30707221F433A4099E72F
:100464009B4EB54238D0802636043743B846382BE5
:1004740000DDDCE01F2B00DC30E11E004746203E9F
:10048400F740BC46202B04D04026F31A46469E4033
:100494003243170063467A1E97411F43CCE0002B7A
:1004A40000D104E24346134300D159E14B07C0088D
:1004B40018438023C9081B03194208D04546ED0898
:1004C4001D4204D14346D008590708432900420F6E
:1004D400C9007F4D1143C0004B07CA087C49C008BE
:1004E40003438D4268D012036D05120B6D0D00217C
:1004F40012031800130B0A0D12051A43764B2D052F
:1005040013402B435B00E4075B08234319001CBC26
:1005140090469946A246F0BD3E00164312D05E1E98
:10052400002E00D000E187188742804141444042B8
:10053400091801250B0233D5022585E764463300EB
:10054400414610001D00C7E7002D00D0DAE00C0082
:100554000443F3D05C1C00D19FE15D4CA64200D162
:100564002FE1DB43382B00DD66E11F2B00DD83E147
:1005740020240500E41A0F00DD40D940A040434682
:10058400A7405B1A441EA04198462F433843171ACC
:10059400BA42924143465242991A64463500CAE629
:1005A40007223A40002A00D0F6E64B07CA08484919
:1005B400FF083B438D4296D11900114300D19EE1BF
:1005C400802109030A431203120B414D8FE71500E2
:1005D400002200238BE7002B00D0C7E06B1C5F05D3
:1005E4007F0D012F00DCF1E0394DAB4200D1B9E0C1
:1005F40085180A008542894142444942511807221C
:10060400CF076D082F4349083A401D00C2E6072270
:100614003049ED1A31403A40BCE63E002838864065
:1006240000279FE6380000F053FC20308EE6434656
:1006340013431F007A1E9741C71BB84280414042B2
:10064400091A78E60E003B0006431343002D61D1DE
:10065400002E00D0F4E0002B00D11BE164463900E9
:10066400100039E71A4FBB427AD03300FFE630005E
:100674001F3DE840202B03D04021CB1A9E40374336
:100684007B1E9F41072207433A400021002589E74A
:10069400171A4346BA42B641591A76428E1B64462B
:1006A4004EE61F2B00DDADE020264746F61AB74084
:1006B400B9461700B246DF404E463E433700564621
:1006C400B240561EB24117434246DA408918AEE69C
:1006D400FF070000FFFF7FFFFFFF0F802026474634
:1006E400F61AB740B9461700B246DF404E463E43BD
:1006F40037005646B240561EB24117434246DA40CE
:10070400891A99E77F4CA6425BD0802424045B427B
:10071400214327E7002E0CD1002B00D1CBE0644607
:1007240039001000774DD7E6764FBB4218D033001E
:1007340075E6002B14D04B07C00818438023C90862
:100744001B03194207D0FC081C4204D17907D008C6
:100754000843E14621004C46420FC9001143C00042
:10076400684DB9E61D0000220023C0E6002D5BD1D0
:100774000D00054300D1E2E65D1C00D1B0E0614DFF
:10078400AE421FD0DB43382B71DC1F2B00DD96E01B
:1007940020250F00ED1AAF40B9460700AA46DF40F6
:1007A4004D463D432F005546A840D940451EA8411B
:1007B40088440743BF18974292415142414435004F
:1007C4003AE6644635004146100085E60B000343D3
:1007D400002D00D063E6002BF5D04346134300D12F
:1007E4007AE687188742804107224144404209182B
:1007F4003A400B0200D4D5E6434B01351940C9E514
:10080400380069E61E004746203EF740BC46202BD0
:1008140004D04026F31A46469E40324317006346EE
:100824007A1E97411F4302E6364DAE42CAD0802558
:100834002D045B422943A6E70843411E8841A6E6EE
:10084400002B00D148E6871A4346B842B641CB1A7A
:1008540076429E1B33024BD5171A4346BA42924145
:10086400591A5242891A072264463A4092E50143D2
:100874000F00791E8F419DE71C000F00203CE740CC
:10088400202B03D04024E31A99400843411E884199
:1008940038437CE60022002425E6171A4346BA4270
:1008A4009241591A5242891A6446350043E5414639
:1008B4001000144D10E680220024120380E61D006F
:1008C4000F00203DEF40BC46202B03D04025EB1AFF
:1008D4009940084307006346781E87411F4369E730
:1008E400871897429B4141445B42C9183500A3E5F0
:1008F4003B003343CED0072231003A4052E6002376
:100904001A00F4E5FF070000FFFF7FFFF0B557462C
:10091400DE464E464546E0B5834606000F034800D2
:1009240087B092461D003F0B400DCC0F002800D12C
:100934006FE0DE4B984238D08023FF001B041F4336
:10094400730F3B430193DA4B0027994600239B46E0
:10095400F60081442B0369001B0B52469846490D4F
:10096400ED0F002900D185E0D04B994200D173E00E
:100974004346DA0080231B0413435246CC48520FEB
:1009840084461343524600206144D2008944210026
:10099400694000918C46012149448A460F2F00D9B1
:1009A40090E0C449BF00CF59BF465B463B43019327
:1009B40000D06AE102230827002681469B46C9E746
:1009C40032005846019B61460091022800D175E02F
:1009D400032800D1FEE1012800D02CE100230027E8
:1009E400002600253F032A0D3F0BB34812053A4366
:1009F40002401B051343009A5B00D1075B080B43BD
:100A04003000190007B03CBC90469946A246AB465C
:100A1400F0BD5B463B43019300D12FE1002F00D191
:100A2400A5E1380000F054FA03000B3B1C2B00DD59
:100A340096E11D22D31A5A460100DA405E4608396F
:100A44008F4013008E403B4301939C4B00271B1A9D
:100A5400994600239B467DE7414653460B43934901
:100A64008C46E144002B00D01AE1022202201743F5
:100A740000228CE7134300D10DE14346002B00D143
:100A840081E1404600F024FA02000B3A1C2A00DD02
:100A940072E10100434608398B4098461D239A1A97
:100AA4005346D3401A004346134352468A404946AC
:100AB400081A824989468144002068E77B4B002755
:100AC40000268EE7140C1204120C1100370C3604A5
:100AD400350C794328008C462E00604360448346DD
:100AE40056432100300C80465846794340440291D5
:100AF400844506D98846802149028C46E044414613
:100B040002913604010C360C00048B4681191E0C2C
:100B14001B041B0C0391190079438C462800754370
:100B24006544A8465843050C45447743A94203D974
:100B3400802149028C466744290C8C463900000404
:100B4400000C2D042D186144AB44059159460491C1
:100B540001990F043F0C080C39005143424390465D
:100B640002008C46090C8B4662437C4344445C443B
:100B7400A04503D98021490288464244210C884675
:100B840061460904090C8C463900594343437043B8
:100B94007E430F0CF6182404BE19644442448C4668
:100BA400B34203D980235B0298464044029B6146CA
:100BB4009846049B370443449B46AB45AD416B4286
:100BC4000D0405992D0C8C467F196744FD18A84621
:100BD4005D462D19A542A44193466442A446C344EC
:100BE400DC448F42BF4198459B4193459241A445C3
:100BF400A4415B427F421F43360C52426442BF19F8
:100C04002243BF18624638184302D20D0399134396
:100C14006A020A43501E82416146ED0D2A434E0288
:100C24003243D90100D4B3E00126500832400243D4
:100C3400DE0732435B08224C5444002C62DD51072A
:100C440009D00F201040042805D0101D9042924175
:100C540052429B180200D90104D580241948E400AB
:100C6400034054441848844200DD27E75E075B02D2
:100C7400D2081F0B630516435B0DB2E600239946A9
:100C84000133042700269B4664E60323019781462B
:100C94000C279B465EE6012201201743002276E6DC
:100CA400032303201F43434671E6C046FF070000A9
:100CB40001FCFFFF505E0008FFFF0F800DFCFFFFEB
:100CC400FF030000FFFFFFFEFE0700000023802754
:100CD40000933F030026434B83E6019B3200A44666
:100CE400584670E6AC466EE6802701993F033942C8
:100CF4002DD03B422BD11F433F033F0B00951600E1
:100D0400384B6EE601252D1B382D00DD66E61F2DC0
:100D140040DC35481C005044160082408440EE40BC
:100D2400501E824134431443EB40620709D00F2222
:100D34002240042A05D02200141D944280414042DE
:100D44001B181A023ED501230027002649E68027F6
:100D5400019B3F031F433F033F0B0094214B40E69D
:100D640003005A46283B9A40002601926DE65846F5
:100D740000F0AEF8203057E603005246283B9A4074
:100D84001300002293E6504600F0A2F820307BE6E0
:100D9400CA4650E71F201E004042041BE640202D97
:100DA40003D0124C5444A3401A43501E8241324390
:100DB40007260027164009D00F20002310401400F6
:100DC4000428B9D122005E075B021F0BD208164328
:100DD400002306E680273F031F433F033F0B160013
:100DE400004BFEE5FF0700001E0400003E04000067
:100DF40030B5144D0A034B00120B5B0DC90F0024D0
:100E0400AB4211DD104CA34210DC80246403224366
:100E14000E4CE41A1F2C0CDD0D48C31ADA401300E3
:100E24005C42002900D11C00200030BD094BCC18C5
:100E3400FAE7094DE040AC4663449A40130003438B
:100E4400EEE7C046FE0300001D040000330400006A
:100E540013040000FFFFFF7FEDFBFFFF70B50028C8
:100E64002DD0C317C5185D40C40F280000F030F81A
:100E7400154B1B1A5B055B0D0A2815DD0B388540E5
:100E840000222D032D0B002110002D030A0D2D0B24
:100E940012052A430D4D1B052A4013435B00E4074A
:100EA4005B082343190070BD0200290015329140EC
:100EB4000A000B21081AC5402D032D0BE3E700247B
:100EC400002300250022DEE71E040000FFFF0F8040
:100ED4001C2101231B04984201D3000C10391B0A66
:100EE400984201D3000A08391B09984201D300092A
:100EF400043902A2105C40187047C0460403020281
:100F040001010101000000000000000002780B78DC
:100F1400002A03D0013001319A42F7D0D01A704729
:100F24000023C25C0133002AFBD1581E7047000025
:100F3400F0B5CE46474615042D0C2E0080B50704A7
:100F4400140C3F0C9946030C7E435D436743634393
:100F54007F19340CE4199C46A54203D980235B0213
:100F64009846C4444B4643435143250C36046544D8
:100F7400360C2404A4195B19591820000CBC9046A3
:100F84009946F0BD8022104B520019680A431A603A
:100F9400DA680E490A40DA601A680D490A400121EC
:100FA4001A609A688A439A601A680A490A401A6061
:100FB400DA6809490A40DA6000221A618022074B84
:100FC40012059A607047C046001002400C40FF882A
:100FD400F6FFF6FEFFFFFBFFFFFF02FF00ED00E060
:100FE40010B502000368007900283BD0002083423A
:100FF4001FD0517901291DD0814203D0022921D06B
:10100400012006E01D494C689C434C600C681C435D
:101014000C609279002A0CD0022A17D0032A1DD022
:10102400012A28D1154AD1689943D16091680B43AC
:10103400936010BD11490C689C430C604C681C43C0
:101044004C60E6E70D490C681C43F6E70B4A9168CF
:1010540099439160D1680B43D360EAE7074A9168EA
:101064001943F6E7DB43054A1168194011605168DA
:101074000B405360DDE70120DBE7C046000401407C
:10108400F0B500274B6885B001930E68013B0293CD
:101094003300FB400BD1029B012B05D84368CA687F
:1010A400B34356431E434660002005B0F0BD012300
:1010B400BB40334033D01A0003255A435543ED4314
:1010C400046800952C40019D55432C430460029C08
:1010D400012C0AD88468A44665468C68544303945A
:1010E400009C2540039C2C438460C468A446654648
:1010F4000C6954430394009C2C402500039C254315
:10110400019CC560022C0AD14C69FF2B09D80F251C
:10111400524355436243036AAB43134303620137AB
:10112400B6E70F221B0A5B435B435A436343456A9A
:1011340095431D434562F2E70122036830B59343AA
:101144000360CB688D681B0204682B43144D2C404C
:10115400234303604B680D69036103681A4302600B
:101164008268104B1A40826084688A69E40AE40247
:101174002A43224382601C00002D04D0802382680D
:101184001B02134383600268074B1A400B681A431F
:10119400026043684A69234013434360002030BD22
:1011A400FFE0FFFFFF7FFFFFFFFFCFFF024B186849
:1011B4004007C00F7047C04600100240024B186839
:1011C400C006C00F7047C04600100240034B044ADB
:1011D400DB681B061B0FD35CD8407047001002402D
:1011E400715B0008034B044ADB685B055B0FD35C4F
:1011F400D840704700100240815B000810B50E4CC7
:10120400E368DB0315D4FFF7D9FF431E98410B4B6A
:10121400404218400A4BC018E3680A4AE1689B023E
:101224001B0FD35C0902890F58430131FEF7C6FF37
:1012340010BD0548F0E7C0460010024000E548FF35
:101244000024F400685B000800127A000C22124BA0
:1012540010B5D8681040FEF7A7FF1414141407142F
:1012640014141C1414141100FFF7A8FF431E984112
:101274000A4B404218400A4BC01810BDFFF7BEFF8E
:10128400FBE780205B6800021B045B0F013398407E
:10129400F3E70448F1E7C0460010024000E548FFC8
:1012A4000024F40000127A0010B50C2822D1174A49
:1012B400D36C0340C02000031843154B984208D058
:1012C400144B984213D0144B984215D1FFF7BEFF2C
:1012D40010BDFFF76BFF00280CD0FFF76FFF431E14
:1012E40098410E4B404218400D4BC018F0E7136D67
:1012F4009B0508D40020EBE7FFF7A8FFFFF766FF84
:10130400FFF770FFE4E780200002E1E700100240ED
:1013140008000C000C000C0004000C0000E548FF61
:101324000024F400FA2373B59B000193C368010001
:1013340000205B060ED40123012280255B42CB6092
:10134400CB680C4C9B0913406D02019E002E01D00A
:10135400012B00D176BD23682B4202D0019B013BB7
:101364000193CB68019E9B091340002EEDD1100020
:10137400EBE7C04610E000E0CA2370B54362773B58
:10138400436204000D00FFF7CDFF012816D0402270
:10139400A3680C4993432A6800201343A36023697C
:1013A400AA68DB0BDB031343236122696B680A40E1
:1013B4001B041343236181235B42E360FF236362C5
:1013C40070BDC046FFFF80FF4023F0B504680200F3
:1013D4001C400120002C23D14F680B6848693B4313
:1013E4008F6816683B43CF680D6A3B430F693B43E4
:1013F4008F6903433B43CF69000C3B43094F2B43A5
:101404003E403343042613605368B3431843802398
:1014140050609B0120009D4202D14B6A9BB2136134
:10142400F0BDC0464000FFFF70B505680400012010
:101434000E00054001D0012070BD4B68C9682268C8
:101444000B4331690B43B1690B4319490A401343F8
:1014540023606368174A1340B26813436360A36848
:10146400154A134072691343A360144B9C42E2D1A2
:101474000C20FFF719FF0028DDD031680029DAD0ED
:101484008022B6694B08120296420BD14000C01864
:10149400FEF794FE0A4B03400007400F1843E06038
:1014A4002800C9E7C018FEF789FE80B2F7E7C046F6
:1014B400F369FFEFFFCFFFFFFFFCFFFF0044004095
:1014C400F0FF0000FA2110B58900FEF777FE002234
:1014D400034B013858609A6005321A6010BDC0464B
:1014E40010E000E0094B82B01A680192019A421C94
:1014F400511E8A41801880225202002801D102B074
:10150400704719681142F8D00138F6E710E000E09E
:10151400014B18607047C04600000020014B1B6857
:10152400186870470400002037B5C0B201AC002928
:1015340008D18039084320700120210080B200F0D6
:10154400F7FD37BD40256D4228432070CDB27F2979
:1015540002D865700220F0E7802040422843C90980
:101564006070A1700320E8E710B50B001418110097
:101574008022D200944205DC821E0920FFF7D4FFAA
:10158400002010BD01204042FBE737B5C0B201ACDA
:10159400002906D120700120210080B200F000FE55
:1015A40037BD402528432070CDB27F2902D865700D
:1015B4000220F1E7802040422843C9096070A170ED
:1015C4000320E9E713B501AC80B2230089B20422F9
:1015D400FFF7DBFF03230020E25C00021018013B4D
:1015E400FAD216BD002110B50800FFF7EBFF10BDBD
:1015F40013B501AC230089B280B20222FFF7C5FF04
:10160400637820781B02C01880B216BD13B56B46F0
:10161400DC1D89B280B223000122FFF7B6FF2078D7
:1016240016BD07B56B4607331A7089B280B2012222
:10163400FFF77AFF07BD07B501AB1A70120A5A709B
:1016440089B280B20222FFF76FFF07BD13B5140AF7
:1016540001AB1A705C70140C120EDA7089B280B28D
:1016640004229C70FFF760FF13BD10B504000278DC
:101674000B212A20FFF7D5FF626800211E20FFF707
:10168400E5FF10BD064B10B51B68D203DB68890566
:101694001A4302430A4308200021FFF7D7FF10BD75
:1016A4000400002010B5020004212D20FFF7C3FF21
:1016B400032206212D20FFF7B4FF002206212D204E
:1016C400FFF7AFFF0A212D20FFF77CFF10BD10B5F7
:1016D400002202212C20FFF7A4FF02222C2011005B
:1016E400FFF79FFF10BD000010B50C00064B002152
:1016F4001B68DA8A02432C20FFF79DFF2200062193
:101704002C20FFF78EFF10BD0400002010B504212B
:1017140004003620FFF756FF002C07D08022120168
:10172400024304213620FFF791FF10BD014A024015
:10173400F7E7C046FFF7FFFF10B56D220400074925
:101744002E20FFF76EFF002C05D0054A05492E20F8
:10175400FFF771FF10BD044AF8E7C0460608000011
:10176400070600000618000007160000F7B54379C5
:10177400704A5B009F5A012345780678013D0400B6
:10178400EDB20093042E03D0F31F5A425A41009243
:10179400694BE27919680B69002A00D0B1E0802214
:1017A400D20313430B61FF080869644A237A024099
:1017B400C0208B7280021B0403401A430A61042078
:1017C4000021FFF743FF3A005D492E20FFF733FF66
:1017D4002800FFF7B1FF5B4B07219F5D2B20BB0067
:1017E4000193594BBA00D258FFF730FF574B0B21E6
:1017F400DA5D2B20FFF715FF554B009A0B219A5CFD
:101804002820FFF70EFF534B019A0C21D2582820B1
:10181400FFF71CFFE379A2795B009B184E4A5B003B
:101824009A5A02212720FFF706FF4C4B6F00FA5A01
:1018340004212720FFF7FFFEE379002B65D1642202
:1018440006212720FFF7F7FEE378AD00ED18444B9F
:10185400AD00EA5808212720FFF7F8FE6389002B22
:1018640001D1404B6381628920212720FFF7E3FEE9
:101874003D4D0C212A682320EF19FFF7E7FE0421D0
:10188400BA882320FFF7D7FE0021A3798B4207D023
:10189400E379364A2120D25CFFF7C3FE01210323FA
:1018A4000F20C02562793040D206024360782D03B0
:1018B40080042840F82502432079ED04800528405F
:1018C4000243FF203601064032431B051A434904F4
:1018D4000A43E0380021FFF7B9FE6378A2780021BB
:1018E4001A43E37912045B031A43134B08201B6861
:1018F400DA60FFF7ABFE422200210D20FFF791FED4
:10190400F7BD1B4A13400B614EE7A378042B0AD1A1
:10191400102206212720FFF78EFE102226212720E1
:10192400FFF77FFE90E7202206212720FFF783FEA2
:101934002822F3E78C5B000804000020FFFFFCFF73
:1019440004280000345C0008045C0008FE5B000806
:10195400FC5B00081C5C0008E45B0008E05B00081A
:10196400C05B000841100000F45B0008F05B000855
:10197400FFFFBFFF70B50D4C050000210420266851
:10198400FFF720FE22683061002D0AD0084B116950
:101994000B401361236800211A690420FFF756FEE7
:1019A40070BD80231169DB020B43F2E704000020C1
:1019B400FFFFFBFF10B5034C2468A062E1622263C1
:1019C400636310BD0400002070B5012405000440C9
:1019D4001B4E2CD000212620FFF7F4FDA02230401E
:1019E4005201024300212620FFF730FE0021362059
:1019F400FFF7E8FD8422022412040243002136206A
:101A04002C40FFF723FE624262410E4B52421A40C1
:101A14000D4B2821D2183620FFF718FE002C05D0D4
:101A24008822282136205200FFF710FE70BD2100C5
:101A34002620FFF7C7FD0200210032402620F3E7ED
:101A4400FFC3FFFF0000F1FF10010F0037B501AC29
:101A540005002300022200213620FFF796FD0E2DFB
:101A64002AD82800FEF7A0FB0E0816282828281CD0
:101A74003628283E41444A0000230122237063781B
:101A8400934318E00322237893431A00012313435A
:101A9400237011E00322237893431A000223F6E70C
:101AA4004C22237893431A00482313432370802342
:101AB40062785B42134363702300012200213620C5
:101AC400FFF732FD01226B46110005333620FFF784
:101AD4002BFD37BD4C222378934323706378333234
:101AE4001340E8E762780223E4E763780222C7E759
:101AF4003022237893431A002023C8E7014B238024
:101B0400DAE7C04601030000F8B5060000200F0024
:101B140015000024FFF79AFFA54203DC0120FFF71C
:101B240095FFF8BD301980B2FFF7BCFDA300F85053
:101B34000134F1E710B50E20FFF788FF802206215B
:101B440012022D20FFF777FD012000F0E5FA0120B5
:101B5400FFF77CFF10BD10B50020FFF777FF0022D0
:101B640004213620FFF767FD10BD000010B50023E7
:101B7400820704D50122134B1B685A758023012464
:101B8400044016D0062200211A430D20FFF749FD18
:101B940003210F20FFF72CFD8123DB0000211842D5
:101BA40005D040220D20FFF73CFD012149420800E9
:101BB40010BD022221001A430D20FFF732FD21003F
:101BC400F5E7C0460400002010B503210F20FFF7FD
:101BD4001DFD43005840030604D5012203210D20B6
:101BE400FFF71FFD10BD000070B500210E20FFF7A8
:101BF400E9FC050000F0F2FB0022040011000E20B5
:101C0400FFF724FD402200210D20FFF70AFD0A4AB8
:101C140000210F20FFF71AFDFFF7D6FF2A0000214D
:101C24000E20FFF713FD200000F0DAFB0022034B27
:101C34001B685A7570BDC046F8FF272404000020B5
:101C440010B5E02203213620FFF7EBFCF02203213C
:101C54003620FFF7E6FC10BDF8B54A4C00210F20F2
:101C64002668FFF7AFFC0500F061430443D5DE228C
:101C74000021D2010F20FFF7E9FC00212368102086
:101C84000533D977FFF7B4FC23689A7A002A00D188
:101C940074E08205920D1A84020404D50122591DB0
:101CA400C87F0243CA770827223302220021112069
:101CB400FFF76BFC3D420FD023680333DE7F202304
:101CC4001E4009D13A0031000F20FFF7BFFC236802
:101CD400DA695E75BA43DA612068C36A002B01D001
:101CE4001C30984723681B7D002B04D0012203215C
:101CF4000D20FFF796FC2B0614D5F82200210F20A7
:101D0400FFF7A4FC2B0707D523685B7D002B03D0CA
:101D1400FFF76AFFFFF794FF2068836A002B01D066
:101D24001C30984788239B031D4212D080220F2029
:101D340000219202FFF78AFC002322685375FFF703
:101D440053FFFFF77DFF2068036B002B01D01C308D
:101D540098470D4A154210D00F200021FFF776FC5A
:101D6400002322685375FFF73FFFFFF769FF2068E0
:101D7400436B002B01D01C309847F8BD7F220240F2
:101D840089E7C046040000200090052410B5FFF741
:101D9400E2FE00222C201100FFF74DFC0022062158
:101DA4002C20FFF73EFCFFF792FC00220321362093
:101DB400FFF737FC012000F0AFF9F02203213620B1
:101DC400FFF72FFC0022024B1B685A7510BDC0465A
:101DD400040000201F2210B51040413202430E219E
:101DE4002B20FFF71EFC10BD0022F8B55F4C050048
:101DF40023685A619A62DA621A635A63FFF7F2FB44
:101E04005B4B984200D0A8E002262E4000D0A7E009
:101E1400FFF7BCFF0020FFF719FE04220021242055
:101E2400FFF7FFFB002E1ED10420FFF73BFCC0B2DE
:101E340000280AD0022212212D20FFF7F2FB802372
:101E440022685B01D18A0B43D3821E20FFF72AFC50
:101E5400226880B2030AD372C30600D11020C0B234
:101E6400FFF7B8FF1BE030212820FFF7ABFB414B05
:101E7400984205D0802322685B01D18A0B43D38228
:101E84000A232B400A2B07D11E20FFF70BFC2368E3
:101E940080B2000AD87202E000232268D3721023B1
:101EA40027682B4028D00620FFF7FCFB386020234E
:101EB40027682B4022D00720FFF7F4FB78604023EB
:101EC4002B401DD00820FFF7EDFB236818728023F8
:101ED4002B4018D00920FFF7E5FB23685872002E29
:101EE40038D1EB0712D5FFF725FE802322681B01AA
:101EF400D18A0B43D38213E03B60D8E77B60DEE7F3
:101F040022681372E3E722685372E8E7052136205A
:101F1400FFF76EFB184A052102403620FFF78BFBC2
:101F24000120FFF793FD00220A212C20FFF779FB03
:101F3400002104202568FFF745FB246828612369F4
:101F440000219B039B0FA3720820FFF73BFBE0607B
:101F54000020F8BD6B07E3D4C7E701204042F8E74F
:101F6400F8231D4200D155E757E7C046040000207E
:101F74003001CADE88888888FFFD0000802373B59D
:101F840001AC237001222300112106002820FFF751
:101F9400CBFA0A2301222370122123002820FFF701
:101FA400C3FA0F2301222370122123002820FFF7F4
:101FB400BBFA0025012E22D12300320029002A2059
:101FC4002570FFF7B1FA2300320029002A20267079
:101FD400FFF7AAFA300000F09FF823000222032141
:101FE4002A20FFF7D2FA00216578267823000122FF
:101FF4002A202170FFF798FA2802304376BD012683
:102004002800FFF723FD2300290001222A20257040
:10201400FFF78AFA2300320029002A202670FFF7EE
:1020240083FA2300022203212A20FFF7AEFA3000AC
:10203400FFF70CFDD7E70000F0B587B00290002150
:102044003620FFF7E3FA042104903620FFF7D0FA94
:10205400002105902820FFF7B5FA01220390002102
:102064003620FFF7DEFA002204213620FFF7E3FAD8
:10207400284A00212820FFF7E9FA222200213620ED
:10208400FFF7CFFA962380245B00009300230725F3
:1020940027002A2601937F083C43E4B222000B2147
:1020A4003000FFF7BEFABC2208213000FFF7B9FA6E
:1020B400BD2208213000FFF7B4FA012000F02CF80B
:1020C40009213000FFF794FA029B0005000DC31AA2
:1020D400DA179B185340009A934201DA0194009353
:1020E400029B984200D8BC43013D002DD3D1049AF1
:1020F40029003620FFF795FA059A04213620FFF7C8
:102104009AFA039A29002820FFF7A0FA019807B049
:10211400F0BDC04600A71F0010B5040000F00CF984
:10212400041900F009F9001B0028FADD10BD0000B5
:10213400F7B50E0000921C00050000F04FF90123D2
:102144000227144A31009362134E144B0192013D4D
:10215400ADB2B5420FD10225009AA1188C4211D11B
:1021640080219C680C40FCD10123019A936100F00A
:1021740037F92000FEBD9A683A42FCD00A78013152
:102184001A73E4E79E682E42FCD0267801341E734D
:10219400E4E7C04600040050FFFF000000300140A7
:1021A400F7B51D001C4B009206000F0080221C0096
:1021B40099681142FCD100F011F90122390002277B
:1021C400164B9A62164A0193013EB6B2964211D159
:1021D4008021A2680A40FCD102260127009BE16805
:1021E400E918A9420DD10122019B9A6100F0F8F887
:1021F4000020FEBDA3683B42FCD00B780131237361
:10220400E2E7A3683342FCD02273A3683B42FCD0CC
:10221400E3682B700135E4E700300140000400500E
:10222400FFFF00008022034BD9691142FCD0C2B2E7
:102234009A6270470044004070B50E0015000C000F
:10224400A31B9D4201DC280070BD2078FFF7EAFF44
:102254000134F5E7014B18787047C046540200205A
:10226400F8B50600FFF7DEFF174B40221F00D969BF
:102274001142FCD00123154A154D13702A78002A07
:1022840013D16C68082E11D1002C0ED02020FFF73A
:10229400C9FF3000FFF7C6FF4023FA691A42FCD099
:1022A40000220C4B013C6C601A55F8BD09490D2EF7
:1022B40002D12B700A55F8E7621C6A600E55FF2A9A
:1022C400F3D92B70F1E7C0460044004070030020AE
:1022D400540200205C02002010B50A000100002016
:1022E400FFF7AAFF10BD0000F8B504000F0072B696
:1022F4000B4E75682A008D4200D90A000949200056
:1023040002F0D0FA0023E4191F00013C23700A20D4
:102314007360FFF787FF377062B62800F8BDC046C8
:10232400540200205C020020024A13680133136047
:102334007047C0465C030020014B18687047C046D4
:102344005C03002072B6034A13681818106062B662
:102354007047C0465C030020054B1B68984205D8B3
:102364001B1A00208B424041C0B27047013BF7E783
:102374005C0300200C4A8021130090680842FCD1C1
:102384009168C90700D5D268402238201968914362
:1023940019601968814308001821014319601968FC
:1023A4000A431A607047C046003001400A4A80213F
:1023B400130090680842FCD19168C90700D5D2681F
:1023C40040223820196891431960196881431960C3
:1023D40019680A431A6070470030014000207047B2
:1023E40070470000F0B50225002401270D4E87B088
:1023F4006946300000950197029403940495FEF712
:102404003FFE3800B562FFF76DF86946300000956D
:1024140001940494FEF734FE0520FFF763F807B037
:10242400F0BDC0460004005070B50124044D2000E6
:10243400AC62FFF757F8AC610720FFF753F870BDA3
:1024440000040050C30704D508230B4A51694B40CC
:1024540053610223184204D0A022D20551694B4093
:102464005361430706D5A0228023D20551695B003E
:102474004B4053617047C04600040050C30702D567
:102484000822084B9A620223184202D0A022D205E5
:102494009362430704D5A0238022DB0552009A628D
:1024A4007047C04600040050C30702D50822084BF9
:1024B4009A610223184202D0A022D20593614307F5
:1024C40004D5A0238022DB0552009A617047C046E0
:1024D400000400500020704700207047F0B5164EED
:1024E40005A8058877681548154C07403C430C43FC
:1024F4007460B2622024320096692642FCD0D66908
:102504002D043443D461546804400E4820432843C6
:10251400014351600420202194690C4206D194693E
:102524000442F9D0546A1C700133F5E7D3690020E2
:102534001943D161F0BDC04600540040008000FC46
:10254400002001820024008270B588B001F062FF8F
:10255400061E04D10200322101F06EFC06000025A3
:1025640001240A2305A92A0030000D704B708D70D8
:10257400CC700D714C718D71CC714D720D7201F076
:1025840008FE23002A000321300001F081FD23000E
:102594002A002900029401940094300001F0E2FE24
:1025A400300001F0EFFB2900300001F04EFD022263
:1025B4000194009423001100300001F0DDFC08B008
:1025C40070BD00000122014B1A7170475C030020AA
:1025D40010B50420FFF736FF10BD000070B504A845
:1025E40005880F480F4E446826400F4C344321435E
:1025F4006C1C2404214341608262202102000220D9
:1026040094690C4206D194690442F9D01C780133D0
:102614009462F5E7D36900201943D16170BDC046C7
:1026240000540040008000FC00200082CA22FA20EE
:1026340030B504250D4B0E495A62773A5A629A68AE
:1026440080000A409A609A680A490A400A499A60D6
:102654000C68DA682A4205D10A68121B8242F8D94A
:10266400FF225A62FF225A6230BDC0460028004051
:10267400FFFBFFFFFFBFFFFF5C030020CA22224BCA
:1026840070B55A62773A5A629968204A49050DD55D
:10269400FA2404261568A400D968314206D01168CA
:1026A400491BA142F8D9FF225A6270BD9968184C9F
:1026B400042621409960DC681649E4B22143FA24D7
:1026C400D9601568A400D968314204D11168491B46
:1026D400A142F8D9E7E7072158619A688A43802123
:1026E4009A600D4A490310680843106090680143DA
:1026F400916080229968D2010A439A608022996885
:10270400D2000A439A60CEE7002800405C03002010
:10271400FFFBFFFF7FFBFFFF0004014073B5C021F7
:102724001A4B89039A680A40802189038A420BD094
:1027340001221868164C90431860986820400143A1
:10274400996019680A431A608020124CC0032268F9
:102754000092D969014217D1FA25AD00DA692168DE
:1027640002400191009E0199891B01910199A9429E
:1027740008D901201A6808490A401A609A688243F5
:102784009A6076BD002AE9D00020FAE700440040B0
:10279400FFFFCFFF5C0300205FFEFFFF8023064A9C
:1027A4005B05916B0B4393638023044A9B00116880
:1027B4000B4313607047C046001002400070004095
:1027C400032208490B6893431A00012313430B6047
:1027D4000421054B1A690A431A6130BF1A698A43F6
:1027E4001A6170470070004000ED00E070B505000C
:1027F400FFF71CFF1D4B40221C00D9691142FCD07D
:1028040080235B02E2691A42FCD18023DB03E26984
:102814001A42FCD0FA21164889016843FDF7CEFC20
:10282400FFF72CFFFFF77AFF002801D001F00AFA26
:102834008023A268DB031343A360802322685B0028
:102844001343236001230226A2681343A360236871
:1028540033432360FFF7A2FFFFF7B2FF236828008A
:10286400B3432360FFF76EFD70BDC04600440040D3
:102874008890000070470000374970B5CB690C00A0
:102884000A688D68180709D1202003424DD00242FE
:102894004BD0486AC0B2FFF7E3FC70BD01212800A9
:1028A400084003D19026760032423ED01D000D40F0
:1028B40004D08026760016402FD0216202210B42DC
:1028C40004D0002802D0216249180D4304210B4290
:1028D40004D0002802D0216202390D4319071ED505
:1028E400910601D400281AD0082121620D43202129
:1028F4000B4205D00A4203D0606AC0B2FFF7B0FCB5
:10290400A3685B0601D42B070CD54022A3681342AD
:1029140008D0A3689343A360BFE73500CEE7002D3A
:10292400BBD0E4E7FFF7A6FFB7E7802149030B42DA
:1029340003D0680201D52162AFE780210B4201D0A8
:102944000A42AAD140210B42A7D00A42A5D023684B
:102954008B432360A1E7C0460044004070B500F0FB
:1029640033FC050072B6124C2379002B08D00023E7
:102974002371637123680F4AA36003000C339360CF
:1029840062B66379002B0AD10B49A068FFF7E4FC17
:10299400002808D001236371064B10359D60012087
:1029A400FFF782FD70BD0120FFF768FDFAE7C0461E
:1029B4005C03002070050020B80B0000094B0A4A94
:1029C4001A600A4A1A6000225A600A329A60033A6C
:1029D400D9681142FCD10A221A61054A1A6072B6FA
:1029E400FEE7C04600300040CCCC00005555000046
:1029F400AAAA000011B50400FFB01049684602F00D
:102A040099F82000FEF78CFAF623FF3398420CD88D
:102A14006B462100981D02F08DF82000FEF780FA25
:102A240006306844064902F085F86846FEF778FAED
:102A340001006846FFF750FC7FB011BD9C5E0008A2
:102A440014610008F0B58FB005002422002105A808
:102A540001F031FF0326059BEC5C019301F0EEFECF
:102A6400001943783340022B00D1203C059BEC54E1
:102A74000133EC5C0593002CEDD107AE0CAB3200B6
:102A84002449280002F02CF8234F05940296059B54
:102A940001930C23019A5343DE59002E17D03100C1
:102AA4000298DC19FEF732FA002817D10298FEF7D3
:102AB40037FA03903000FEF733FA039B83420DD1BB
:102AC400012306936368002B08D102330693069B07
:102AD400012B07D0022B09D00FB0F0BD019B0133AD
:102AE4000593D4E70D48FFF785FFF5E700F06CFB8D
:102AF400A36801000C9A28009847041E0D9006D084
:102B0400FEF70EFA01002000FFF7E6FBE4E70448B5
:102B1400E9E7C046A55E0008485C0008AD5E000811
:102B2400C05E0008D2B202480A714A717047C046BA
:102B34003C5C0008531E9A4101488A717047C046A4
:102B44003C5C0008531E9A4101480A727047C04613
:102B54003C5C000892B28A72120A0148CA72704739
:102B64003C5C0008531E9A41002392B201480A7645
:102B74004B7670473C5C0008130A0A734B73130CC2
:102B8400120E02488B73CA737047C0463C5C00083F
:102B9400130A0A744B74130C120E02488B74CA7411
:102BA4007047C0463C5C000801480A757047C0463F
:102BB4003C5C0008004870473C5C000810B51000FD
:102BC4000C0001F02DFC0023984201DB014B207026
:102BD400180010BD3C5C000810B510000C0001F09A
:102BE40049FC0023984201DB014B6070180010BDC2
:102BF4003C5C000810B510000C0001F06BFC0023D5
:102C0400984201DB014BA070180010BD3C5C000829
:102C140010B510000C0001F03FFC0023984201DBCA
:102C2400014BE070180010BD3C5C000810B51000AA
:102C34000C0001F001FC0023984201DB014BE07120
:102C4400180010BD3C5C000811B50B4CFFB00C34EF
:102C540023000C3B1A68002A02D108487FB012BD39
:102C64000749684601F01CFF6846FEF759F9010060
:102C74006846FFF731FBEAE7485C00083C5C000863
:102C8400CA5E000810B500F0A5FA014810BDC046A0
:102C94003C5C000810B5FFF791FE014810BDC0462A
:102CA4003C5C000810B5080000F00AFA004810BDAA
:102CB4003C5C0008004870473C5C00083FB5274D69
:102CC400FFB002AC691D0622684601F0EBFD244A00
:102CD4002449200001F0E4FE2000FEF721F92249F6
:102CE400201801F027FF2000FEF71AF91F492018C9
:102CF40001F020FF2000FEF713F96A461C49201852
:102D040001F0CEFE2000FEF70BF91A4B1A4A1B49BC
:102D1400201801F0C5FE2000FEF702F9184A1949EF
:102D2400201801F0BDFE2000FEF7FAF8821F0A20E9
:102D34001549684401F0B4FE7B232000A371FEF71B
:102D4400EFF801002000FFF7C7FA02210F48FFF750
:102D5400C3FA280083239B009D4430BD3C5C0008DB
:102D64005A5A0000D05E0008D75E0008E35E0008EF
:102D7400035F0008155F00081E5F00082A5F000853
:102D84003D5F0008635F0008D25E0008146100081C
:102D940070B56B4C0D00A54406AC6A4A6A49200024
:102DA40001F07EFE2000FEF7BBF86849201801F010
:102DB400C1FE2000FEF7B4F80600287801F037FBC6
:102DC40063490200A01901F06BFE2000FEF7A8F889
:102DD4000600687801F057FB5E490200A01901F073
:102DE4005FFE2000FEF79CF80600A87801F098FB2F
:102DF40059490200A01901F053FE2000FEF790F893
:102E04000600E87901F02AFB54490200A01901F0F8
:102E140047FE2000FEF784F82A795149201801F072
:102E24003FFE2000FEF77CF80600E87801F046FB40
:102E34004C490200A01901F033FE2000FEF770F89F
:102E4400AA794949201801F02BFE2000FEF768F802
:102E54002A7A4649201801F023FE2000FEF760F884
:102E64006A7E2B7E12021A434149201801F018FE93
:102E74002000FEF755F86B7B2A7B1B021343AA7BC9
:102E84003C4912041343EA7B201812061A4301F04A
:102E940007FE2000FEF744F86B7C2A7C1B021343D8
:102EA400AA7C354912041343EA7C201812061A43FB
:102EB40001F0F6FD2000FEF733F82A7D2F49201893
:102EC40001F0EEFD2000FEF72BF8EB1CDA7F2C4915
:102ED400201801F0E5FD2000FEF722F8A97E6B1C06
:102EE400AA1CDB7FD27F0591E97E20180491297FFB
:102EF4000391697F0291A97F0191E97F00912149A2
:102F040001F0CEFD2000FEF70BF8821F1A201E49A7
:102F1400684401F0C5FD7B232000A371FEF700F88F
:102F24001A49201801F006FE2000FDF7F9FF010000
:102F34002000FFF7D1F9164886239B009D4470BDFD
:102F4400E8FDFFFF5A5A0000D05E0008735F0008D6
:102F5400845F0008915F00089D5F0008AA5F000875
:102F6400BB5F0008CA5F0008D65F0008E45F000882
:102F7400F45F0008076000081A6000082D6000086C
:102F84004060000851600008D25E00081461000827
:102F94003C5C000870B50D0016000400FFF78EFEBF
:102FA400320029002000FFF7F3FE014870BDC0463F
:102FB4003C5C0008F8B506000C00284D02293BD8FB
:102FC4002C78002C19D1681C4022210001F073FCDC
:102FD40033780A2B01D00D2B18D10026B44223D00C
:102FE4002F004137691C2200380001F05BFC1C4BA8
:102FF4003E555C802E70012616E03E2CE8D9022155
:1030040018480026FFF768F92E700DE0082B0DD143
:103014000026B44208D0013CE4B22C7003210135EF
:1030240011482E55FFF758F93000F8BD6A1C1355A6
:1030340001342C700026F7E73E290CD82F004137C5
:103044000A000100380001F02DFC054B5C800023D0
:103054003B552B70CFE702210448D2E772030020CE
:10306400F203002014610008096100080D610008E2
:1030740000B591B000214022684601F01CFC4021BB
:103084006846FFF731F9002814DD81B26846FFF77E
:1030940091FF01280ED10848084B02005B88413299
:1030A400013B3F2B00D93F23D318002241305A70F3
:1030B400FFF7C8FC11B000BD72030020F20300202A
:1030C40010B50400C2B09C22FF211BA801F0F3FB41
:1030D4006322210002A801F0E5FB01221E4B99683E
:1030E4000A439A60002202A9895C01321970632A9A
:1030F400F9D11A68632302A95B181A7072B6174AC9
:103104000121130090690842FCD15068084203D0A1
:103114001349D1601349D160C022596892020A430D
:1031240080215A6000221048490002ACA45801943E
:10313400845030BF04328A42F7D101229969114286
:10314400FCD1596809480140596059680A435A60DA
:1031540062B642B010BDC0460030024000200240BA
:10316400EFCDAB890504030200000808FFFFFCFF54
:103174000122104B70B599680F4C0A439A600022E3
:10318400511C642912D122001B6863321278DBB20D
:103194009A4202D00948FFF793FF094D63222800A1
:1031A400210001F07FFB074B1D6070BDA25C1A700B
:1031B4000A00E5E7003002400000080800010008AA
:1031C4000004002070050020014B18687047C046B9
:1031D4007005002010B50348FFF772FFFFF7C8FF22
:1031E40010BDC04600010008704770477047704723
:1031F400F8B50500FFF7E8FF2E00C31CDF7F0400CD
:103204000A36002F23D1FEF789F9FF2302001A4062
:10321400AA72010C9446020A1A400B40CA21000EFD
:103224007270B370F0702974DE21012669746146EE
:10323400AF73EE73A176E276DE21CA22237760773C
:10324400A777E677A3190234DA77E177F8BD0100AE
:1032540008221A31300001F025FBF7E770B50400AD
:103264000E00FFF7B1FF2568012D0ED0022D1ED0F0
:10327400002D0DD12000FFF7BBFF42200521FF30B8
:10328400FEF732FA0223236002E0042E02D06560C6
:10329400606870BDFEF7A6F9154B0225002698421A
:1032A40002D166602560F3E7FFF7BEF8F9E711493C
:1032B40002780E001036300001F046FA3000FEF7B6
:1032C400D4F9C52321002372A37D08315A1C6372EB
:1032D400A2750C200022FEF747F900220C201100F1
:1032E400FEF7D0F90020FEF741FC65600123CAE730
:1032F4003001CADE64040020F8B50700FFF764FF5C
:1033040000231E4D06002B60FEF740FD1020FEF743
:103314006BFD05210400002F00D10421942000013D
:10332400FEF7E2F90320FEF74FFB707E337E0002C6
:103334001843431E9841FEF71DFB11484368002BB8
:1033440009D1104B82681A4205D10378002B02D1AF
:10335400317801F0F3F80120FEF7D8F9002C0AD1F6
:10336400094B0A4A0A490B48FEF724FBEC822C83DA
:10337400AC762000F8BD01246442FAE74C05002035
:1033840064040020FF00FFFFF1310008EF31000862
:10339400F3310008ED31000813B50400FEF7E6F937
:1033A40069460B4B1A785B680A70627E217E1202B2
:1033B40001930A4307D1DBB21A0619045218D21832
:1033C4001B02D31801936846FEF74FF913BDC0469C
:1033D4006404002010B5FEF7CDFFFEF703F90A4B95
:1033E400984203D0FFF720F8FEF7FCF80320FEF71D
:1033F400EBFAFEF7DBFFFEF7F5F8044BC018431EAB
:103404009841404210BDC0463001CADED0FE35218D
:103414000023F7B53E4C6360E67DFFF7D5FE05005B
:1034240031002000FFF71AFF002E04D00023E375BB
:10343400637E013B6376002809D0237E002B08D0ED
:1034440000221800637E2276013B637662600600E8
:10345400E6E702282AD12F4B9B681E682B7D0125A5
:10346400002B03D01D00322B00D9322501F0D4FAF1
:103474000700300064216843FCF7A0FE33000F3BD3
:10348400C318690038000193FCF71EFF300048435D
:103494006421FCF793FE019B1D1A002D0BDCFEF743
:1034A4004BFF0123A3760023E0616360A37E012B1D
:1034B40020D000200DE00220632D0BDCFEF7C2FFBC
:1034C4002800FFF793F9FFF785FF0028E7D00120D4
:1034D4004042FEBDFEF7E8FF28003238FFF786F9C8
:1034E4000220FEF7CBFF3220FFF780F90220FEF71F
:1034F400DBFFE8E7E569FEF71FFF8542D9D8002026
:10350400637EA0765A1C6276E4180423E375E0E730
:103514004C05002070050020054B82B09A6B0243D5
:103524009A639B6B18400190019B02B07047C046A0
:1035340000100240054B82B0DA6A0243DA62DB6AA9
:1035440018400190019B02B07047C0460010024031
:1035540070B5FEF743FF0500FEF70CFFFEF742F8D7
:10356400104C2600A04206D0FEF75EFFFEF73AF8A4
:10357400A04200D0FEE70120FFF7BEFE041E00DAE1
:10358400FEE7FEF713FFFEF72DF8B04200D0FEE78A
:10359400054B1868FFF700FF2800FEF721FF200005
:1035A40070BDC0463001CADE700500200122374BD1
:1035B40070B51968914319601B68134200D0FEE787
:1035C400334934480B68344C184080231B010343AF
:1035D4000B6023681343236004220B00216811420B
:1035E400FCD062682D491140802252010A43626076
:1035F4000122216D0A4322650222216D1142FCD071
:103604008022196852000A431A608023226D1B032A
:1036140013432365236D224A0C2613402365236D2F
:10362400204A1A4080239B02134323658023226D82
:10363400DB021343F0222365E3689343E360E3680A
:10364400194A1340E360E368184A13400322E36015
:10365400E36893431A0001231343E360E5683540AC
:10366400042DFBD11248FDF72DFF124B10481A68A8
:1036740015431D60FDF74CFF0823E26CB24313436E
:10368400E364E36C0C4A1340E36470BD0020024021
:1036940000700040FFE7FFFF00100240FFE0FFFF63
:1036A400FFFFF7FFFFFFFCFFFFF8FFFFFFC7FFFF70
:1036B4000024F40010E000E0FFCFFFFFF0B5072680
:1036C40001258020FC4AFD4C536895B03343536078
:1036D400636B40052B436363636BA0272B4002930A
:1036E400029BFFF719FFFFF761FFF54BF54A1E60D8
:1036F400E36804AE1340802212021343E3600822FD
:103704000021300001F0D7F8182200210AA801F0A6
:10371400D2F82800FFF70EFF0220FFF70BFF8023EB
:1037240002201021E84CFF055B00B861B961A56176
:10373400BB61802308221B02BB61E44BA2619A682F
:1037440001398A439A609A68E1490A409A609A6802
:10375400E0490A4003219A60C0220C00FB688B43B5
:103764002B43FB60FB682D318B43FB60FB68934369
:10377400FB603B68A34300243B603B688B433B6096
:103784003B6893433B60B0713000747104953571AC
:10379400FDF726FC04233000049374713571B57170
:1037A400FDF71EFC08223000049274713571B57166
:1037B400FDF716FC02200A900AA8010038000C94B8
:1037C4000D940E940B95FDF75BFC102138000A91C3
:1037D4000AA90C940D940E940B95FDF751FC0AA9BB
:1037E400B9480C940D940E940A950B95FDF748FC7A
:1037F40002200AA90A90B4480B940E94FDF740FCE9
:10380400802149000A9138000AA90C940D940E9461
:103814000B95FDF735FC802109020A9138000AA9AD
:103824000C940D940E940B95FDF72AFC08220A9231
:103834000AAA1100A4480C940D940E940B95FDF75C
:103844001FFC10230AA9A0480A930B940E95FDF7B8
:1038540017FC20219C480A910AA90B940E95FDF7A8
:103864000FFCC1239C4A9B0010009C49D2580A407B
:10387400C250010020200860CA5899480240CA502A
:10388400402328220B600AA8210001F014F821002B
:103894001822300001F00FF88021884A4901536B47
:1038A40028000B435363536B0B400393039BFFF7B5
:1038B40041FE02202022032370603100380004926C
:1038C400B360F46034617461FDF7DAFB02204022D6
:1038D40003237060310038000492B360F4603461F3
:1038E4007461FDF7CDFB0220802203237060380051
:1038F400182731000492B360F46034617461FDF7F9
:10390400BFFB82231097113F1397764F5B000AA8E1
:1039140001000B933800FC330A940C940D940E941C
:103924000F9311941294FDF74FFD10227B68210030
:1039340093437B603B68303213433B60624B170018
:103944009A611A0080230AA893611C2200F0B3FF35
:1039540018222100300000F0AEFF80208002FFF723
:10396400DBFD0220FFF7E6FD0323049731003E3F11
:1039740055487760B360F46034617461FDF780FB8F
:10398400802203233100504804927760B360F460CE
:1039940034617461FDF774FBC722FF214E48920025
:1039A4008358464F8B4383508022962352051B0233
:1039B400026080210A930C230B940C940D940F94B1
:1039C400494C0E9309020AAB109120001900FDF72F
:1039D4002BFD8021A36849010B43A3606368434A1C
:1039E4003F4813402A226360A3689343A36023687B
:1039F400354A2B432360C023A1689B0319408023CD
:103A040001909B0399420AD021683948A943216057
:103A1400A16801400B43A36023682B4323608023E8
:103A2400012521685B000B432360A3680AA82B438C
:103A3400A3602023216802260B4323604023936163
:103A4400DB18936100211C2200F035FF18220021AD
:103A540004A800F030FF2800FFF76CFD8023A020AD
:103A6400032404AA9B001100C00504930596069440
:103A7400079508950995FDF703FB8023A02004AA68
:103A8400DB001100C005049305960694079508957C
:103A94000995FDF7F5FA80208003FFF73DFD8023AB
:103AA4000026144C9B046268200013436360E3689F
:103AB400044A1340E3601FE0005801400010024034
:103AC40010E000E0FF7FFFFF000400500000014011
:103AD400FFF0FFFFFF0FFFFF00E100E0FF00FFFF2B
:103AE400FFFF00FF0030014000440040FFB7FFFF2C
:103AF400FFFFCFFF005400402368484A134023606F
:103B04002368474A134023600AAA464B11000B93CB
:103B14000A960C960D960E960F961096FDF70CFBD2
:103B2400E368414A41481340E36080230A963A6DB2
:103B3400DB021343C0223B65920083583C483D4C52
:103B440003403A48835004230AAA03607B331100DC
:103B54000B93200080330C93FDF70EFC0722802189
:103B6400A36849019343A3603A6B334C0A433A6315
:103B74003B6B20000B4060210A930A9B2F4B9A68F1
:103B84008A439A609A6820318A439A602C4A683939
:103B94005A619A688A439A60012252421A6131003A
:103BA400113200F088FEFEF71DFCFFF7E1FAFFF783
:103BB400CFFCB04200DAFEE7236865601A000C32DD
:103BC400A260597B1A7B090211439A7B187C120468
:103BD4001143DA7B12060A43597C09020843997C93
:103BE400DB7C090401431B060B439A4213D100F00A
:103BF400FBFB62B6FEF7B2FEFEF72CFB002804D0F6
:103C0400FFF736FA0220FEF74FFC6368002BF1D071
:103C1400FFF7FEFBEEE7FEF797FCEAE7FFFFF7FF8F
:103C2400FFFFFDFF1A06100001F8FFFF00E100E0AE
:103C3400FFFF00FF00280040700500200030024014
:103C4400B71DC104FEE77047FEE77047704710B523
:103C5400FEF76AFB10BD0000FF210A4B10B5DC68BB
:103C640009480C402043D860DA681140074A0A43E7
:103C7400DA608022064B92025A61802252035A6112
:103C840010BDC046002800407FFBFFFF7FFEFFFF02
:103C9400000401400122044B10B55969114202D0BD
:103CA4005A61FEF795FC10BD00040140042310B5D1
:103CB400074C62691A4202D06361FEF783FC082351
:103CC40062691A4202D06361FDF7C6FF10BDC046A7
:103CD4000004014010B5FEF7CFFD10BDF0B585B06E
:103CE40004000F0003921D00002814D0101E12D0EF
:103CF40063790293002B15D0012D01D980231F4332
:103D04002079039B00953A000299FEF7E7FB012313
:103D1400002802D1012005B0F0BD22680020134321
:103D24002360F8E706233F2DF7D8144E4022FF21E5
:103D3400300000F0C0FD4022FF21114800F0BBFD1F
:103D440040235B421F436B1C37709BB2A1792079DF
:103D5400320000930A4BFEF7BFFB029B084A00287F
:103D640009D10523226813432360D4E70133985C07
:103D7400039C591E6054AB42F8DBCBE77C04002063
:103D8400BC04002073B500250400A8420ED06B4685
:103D9400DE1D0560012332002621FFF79FFFA842A4
:103DA40006D1902322681B0113432360280076BDAB
:103DB40000257557FAE7000073B504000D001600DE
:103DC400002812D0101E10D0617900290ED0012BCA
:103DD40001D9802215430093207933002A00FEF78D
:103DE400FDFB0223002804D1012076BD3F2B05D919
:103DF40006232268002013432360F6E73F200D4A80
:103E0400054001300543157099420EDB01339BB226
:103E14000093A17920790023FEF75EFB0028E3D10B
:103E24000423226813432360DFE70131481E305C1A
:103E34005054E9E7FC040020F0B5060085B00C20DE
:103E44000F00019200F008FD041E2CD0019B494D87
:103E5400837100230360C3714372013328640671C4
:103E640047718372002F0BD130000199FEF732FBAA
:103E7400061E05D1200000F0F9FC2E64002412E097
:103E840000260123266002AA0F212000FFF726FF47
:103E9400B04203D002AB1B78332B07D020000024A0
:103EA40000F0E4FC2C64200005B0F0BD08223100D1
:103EB400266002A800F0FFFC082302AA1F212000AC
:103EC400FFF77AFF012302AA2E212000FFF774FFD7
:103ED400012302AA30212000FFF76EFF022302AA69
:103EE40032212000FFF768FF012302AA34212000B9
:103EF400FFF762FF022302AA36212000FFF75CFFCE
:103F0400012302AA38212000FFF756FF042302AA46
:103F14003A212000FFF750FF012302AA23212000A9
:103F2400FFF7DCFE0028A9D0302202AB1B78232146
:103F3400934302AA137020000123FFF73DFF0028DA
:103F44009CD0012302AA23212000FFF7C7FE0028EA
:103F540000D193E702AB1A7880235B42134302AA91
:103F64001370232101232000FFF726FF00289AD194
:103F740084E7C046FC040020F0B587B01F000CABFA
:103F84001B78050002930DAB1B780091140003937A
:103F9400002857D00023202103602A72013304AA89
:103FA400FFF79CFE00284DD0012604AB1B78029934
:103FB4001A09019231400222B1403740B3433B43D6
:103FC40093430B430421039A8B43324092001343DF
:103FD4000F220099134009010A001A436342634106
:103FE400D900D3B2082293430B4304AA05AF13703C
:103FF400232133003A002800FFF770FE002821D067
:10400400023C63425C4108223B78E40093431C4336
:104014003A003300232128003C70FFF7CDFE00282E
:1040240010D0330004AA20212800FFF7C5FE002881
:1040340008D0019B002B05D1009B002B02D06420EB
:10404400FDF750FA002007B0F0BD73B5050000205D
:104054000C0085421BD001AE2860E97101233200B7
:1040640023212800FFF73AFE00280FD00323302233
:104074001C403378240193431C4332000123232141
:1040840028003470FFF798FE002800D1002076BD88
:10409400F0B585B00500019100921C00002876D08F
:1040A40000230360022901D9002A0FD1222602AF7E
:1040B40001233A0031002800FFF710FE002808D140
:1040C400E0232A68DB0013432B6060E0252603AF5E
:1040D400EEE7019B052B56D81800FCF765F803168C
:1040E4001D243848012302AA2340147810221B01FE
:1040F40094431C4302AB1C7001233A003100280096
:10410400FFF75AFE0028DBD041E0012302AA234036
:104114009B0014780422EBE7012302AA23405B00EE
:1041240014780222E4E7009A0123002A06D11C40F5
:1041340002AB1B78A40140329343DAE7402103AA7F
:104144001C401378A4018B431C431470D4E7009AD9
:104154000123002A05D11C4002AB64011B782032E4
:10416400EAE71C4003AA640113782021EBE7009BD3
:10417400E2017F21002B04D102AB1C780C401443D4
:10418400B9E703ABF9E7A0230020DB002B6005B0FF
:10419400F0BDF0B5002585B004000E000192A842E0
:1041A40000D1B6E00800A94200D1B2E001202560A8
:1041B40002AA8B781178F2788143024057000A00F2
:1041C40003401A4302239A4333793A430340990044
:1041D40004239A431143082291430A00737903404C
:1041E400DF00B37903401901130010223B439343CA
:1041F4000B432021F2798B43024052013078134360
:1042040002AA137005280BD8FBF7CEFF031F303822
:1042140026323F2202AB1B780025134002AA1370FA
:10422400019B002B2CD03423362137270093721C9A
:1042340001232000FFF7C0FD002826D1E0232268D7
:10424400DB0013432360002063E002AB1A78802371
:104254005B421343BF22DFE701257F2202AB1B78B9
:104264001A404023134302AA1370D9E70025F4E748
:104274000125402202AB1B785242F3E70025F8E700
:104284003023322100933327D1E73200012309324E
:1042940039002000FFF790FD0028CFD0012302AAA7
:1042A40000992000FFF788FD0028C7D0019B03AFC9
:1042B400002B30D101333A0024212000FFF70EFDFA
:1042C4000028C0D0337A012608213340DA003B7835
:1042D40020008B4313433B703A0033001C31FFF73B
:1042E4006BFD0028AFD033003A0024212000FFF7F3
:1042F400F5FC0028A7D00422AB003D7895431D436C
:104304003D7033003A0024212000FFF755FD0028BA
:1043140099D005B0F0BD01233A0024212000FFF715
:10432400DDFC002800D18EE7337A012602213340D8
:104334005A003B7820008B4313433B703A00330010
:104344002231FFF739FD002800D17CE733003A0021
:1043540024212000FFF7C2FC002800D173E73B783A
:10436400B343CCE7F0B585B004000AA805780BA8E0
:1043740007780CA80078009301900020844231D083
:104384003F2303AE206030788901184001430320A5
:104394000240CC301201014011430822009BCE3868
:1043A40003409143DB0005400B43043A9343AD00C3
:1043B4002B433A001F00019B0240874303401743ED
:1043C4000222834097431F4332000300212120002F
:1043D4003770FFF7F1FC002804D1902322681B01F9
:1043E4001343236005B0F0BD13B5094C206C0028BD
:1043F40004D102003221FFF71FFD20640021019146
:1044040000910B000A00206CFFF7B6FD13BDC046F7
:10441400FC040020014B186C7047C046FC040020CB
:10442400022803D0052801D001204042704710B56E
:10443400FFF7F6FF10BD0000064A0123904207D0A3
:10444400054ADB18904203D06E3843424341013B96
:1044540018007047520300009A1A0000022803D87B
:10446400034B4000C05E704701204042FBE7C0465A
:10447400445D00080123102803D0DB18402800D035
:10448400033B180070471023012803D0303302285F
:1044940000D0413B18007047012310280CD005DCE4
:1044A4000023082808D001235B4205E002232028CA
:1044B40002D001334028F6D118007047032803D8EE
:1044C400034B06331856704701204042FBE7C046B1
:1044D400445D000880223423920090420BD00CDC0F
:1044E400203B802807D0013AFF3A1033904202D093
:1044F400203B402810D118007047C0221823D20056
:104504009042F8D08022103312019042F3D08022DE
:10451400203BD2009042EED001235B42EBE7000047
:104524000438302804D8044B40000A33C05E704776
:1045340001204042FBE7C046445D0008F0B504009A
:1045440087B00D00022903D005293CD0002038E0B3
:10455400132080B2012201A9FDF7D6FA012202A993
:104564001B20FDF7D1FA012203A91E20FDF7CCFA86
:10457400012204A91D20FDF7C7FA012205A91C2068
:10458400FDF7C2FA019E731E033324D80298431E1A
:10459400033320D8039B5A1E03321CD804994A1EA5
:1045A400033218D8059A571E033714D86660052DB0
:1045B4000BD11B0C608123702172090AE2812173E3
:1045C400012007B0F0BD1920C3E7000C1B0E608169
:1045D4002370120CF0E7074A2D0153195968AA5C9D
:1045E4006160598922706181197A1B7B217223735E
:1045F400E6E7C046B05D000800230200994201DAF4
:1046040049420133052A0BD10A4841430A48091497
:104614004843001340B2012B01D1404240B27047DD
:104624000020022AF7D10348414348200914FF30EF
:10463400EEE7C046D72301007F02000003000528EF
:104644000FD111484143C8170005000D40180F4908
:1046540000134143C8174002400A4018C01540B235
:1046640070470020022BFBD109484143C81740037F
:10467400400B40180549C0144143C8174002400A82
:104684004018C015ECE7C046D793FFFF69BD000092
:1046940052B8D6FFF0B50024250085B002900391EE
:1046A400029BE3400193580907231840013B181A61
:1046B400C0B2FCF7D3FB0022164BFCF727F91F23EB
:1046C400060001980F001840FCF7C8FB02000B001D
:1046D40030003900FBF7FEFD060003980F00FCF7DD
:1046E400BDFB02000B0030003900FBF7F3FDFCF7C3
:1046F4007FFB3D2800DD3D20C243074BD21710400D
:1047040060331B5CA34008341D43202CC8D128000F
:1047140005B0F0BD00001440B05D0008F8B50C0011
:10472400190017000500FFF789FF3900060028006B
:10473400FFF762FF801941B2002903D02000FFF780
:10474400A9FF04002000F8BD4B68F7B506000C0073
:104754001700002B1FD04B89002B1CD00B7A002B89
:1047640019D0FDF707FE0020FDF708FC227A030AA2
:10477400257BC0B29BB29B1A451B60890193FDF750
:104784005BFC307061682B00019A3800FFF7C6FFAC
:104794007060FDF70BFEF7BD0D488546002103E070
:1047A4000C4B5B58435004310B480C4B42189A4253
:1047B400F6D30B4A02E0002313600432094B9A42F9
:1047C400F9D3FCF7DFFB00F011F8FEF777FFFEE703
:1047D40000200020D862000800000020D80100203A
:1047E4000002002084050020FEE7000070B50026CA
:1047F4000C4D0D4C641BA410A64209D1002601F0F7
:10480400A5F90A4D0A4C641BA410A64205D170BD3B
:10481400B300EB5898470136EEE7B300EB589847DE
:104824000136F2E7D0620008D0620008D0620008C6
:10483400D4620008EC30006870470000044B1B6829
:104844001B6A002B00D1034BEC3318687047C04639
:10485400080000206C00002010B5034B010018680C
:1048640000F07CF810BDC0460800002010B5034BD2
:104874000100186800F028F810BDC04608000020A8
:1048840082B0002900D101A9101E06D0002B06D049
:1048940013780B601078431E984102B070470220D1
:1048A4004042FAE7002310B59A4200D110BDCC5C17
:1048B400C4540133F8E703001218934200D170473F
:1048C40019700133F9E7000070B50500002910D014
:1048D4000C1F2368002B00DAE418280000F03EF9CE
:1048E4001D4A1368002B05D163601460280000F092
:1048F40036F970BDA34209D9216860188342F3D107
:1049040018685B6841182160EEE713005A68002AB2
:1049140001D0A242F9D919685818A0420BD12068D5
:104924000918581819608242E0D110685268411879
:1049340019605A60DAE7A04202D90C232B60D5E74C
:1049440021686018824203D11068526841182160BE
:1049540062605C60CAE7C04640050020032370B56E
:10496400CD1C9D43083506000C2D1ED20C25A942F2
:104974001DD8300000F0F2F8254A146821000029FF
:1049840019D1244C2368002B03D1300000F076F8B1
:1049940020602900300000F071F8431C2BD10C2357
:1049A4003000336000F0DBF803E0002DDFDA0C2385
:1049B4003360002070BD0B685B1B19D40B2B03D92B
:1049C4000B60CC18256003E04B688C420DD113605A
:1049D400300000F0C4F8200007220B30231D904360
:1049E400C31AE7D05A42E250E4E763600C00EFE7F1
:1049F4000C004968C3E70323C41C9C43A042E1D0D4
:104A0400211A300000F03AF8431CDBD1C7E7C04656
:104A14004005002044050020124B10B51C68A36B10
:104A2400002B0FD11820FFF717FF0F4BA063036073
:104A34000E4B012243600E4B83600B2383810023C2
:104A440002614361A46B0B4A206961690A4BFCF75C
:104A54006FFA0122002380185941206161614800E6
:104A6400400810BD080000200E33CDAB34126DE6B3
:104A7400ECDE05002D7F954C2DF45158002370B5C4
:104A8400064C05000800236001F052F8431C03D1D2
:104A94002368002B00D02B6070BDC0468005002029
:104AA4000EB400B50B499CB01DAB02900690079163
:104AB40004910948094904CB0591006802A90193AE
:104AC40000F0B0F80023029A13701CB008BC03B0C5
:104AD4001847C046FFFFFF7F080000200802FFFFC1
:104AE4000EB4812370B59DB002AC21AD9B0040CDC6
:104AF400A38102900690FCF713FA0B4B606063628B
:104B04000023606109486363A364013BE3813200CD
:104B14002B0021000068019500F0DEF91DB070BC87
:104B240008BC03B01847C046354B000808000020F5
:104B34000020704703000A7801311A700133002AFB
:104B4400F9D170470B1E04D0FF2A04D98A230360CD
:104B54008B3B180070470A700123FAE770477047CF
:104B6400F0B58E6885B007000C00039201939E4255
:104B74003CD890238A89DB001A4234D00325096982
:104B840023685B1A0293636902985D43EB0F5D1916
:104B9400019B6D1001331B18AB4200D91D00530556
:104BA40032D529003800FFF7D9FE061E09D10C239F
:104BB4003B6040230120A28940421343A38105B0F6
:104BC400F0BD029A2169FFF76DFEA389144A1A40C9
:104BD40080231343A381029B2661F6182660656136
:104BE400019EED1AA560019B9E4200D9019E3200F0
:104BF4000399206800F05BFFA36800209B1BA3605F
:104C040023689E192660DAE72A00380000F062FF64
:104C1400061EE0D121693800FFF756FEC7E7C046FB
:104C24007FFBFFFFF0B5A1B003901D008B890F003F
:104C340016001B0611D50B69002B0ED14021FFF77E
:104C44008DFE38603861002805D10C23039A0138A1
:104C5400136021B0F0BD40237B61002308AC636185
:104C6400203363761033A376079535002B78002B19
:104C740001D0252B46D1AB1B05930CD03200390053
:104C84000398FFF76DFF431C00D1AEE06269059BFA
:104C94009446634463612B78002B00D1A5E0012284
:104CA40000235242626004A9543252186E1C2360DD
:104CB400E360A3601370A36531780522534800F0C4
:104CC400EBFE751C00281FD12268D30604D553239C
:104CD40004A95B1820211970130704D5532304A9D0
:104CE4005B182B21197033782A2B16D0350000213C
:104CF4000A20E3682A786E1C303A092A4ED9002922
:104D040018D010E00135B1E7404B2268C01A0123E6
:104D14008340134323602E00CEE7079B191D1B68B5
:104D24000791002B01DB0B9304E05B42E360022359
:104D3400134323602B782E2B0AD16B782A2B35D181
:104D4400079B02351A1D1B680792002B2BDB099366
:104D54002F4E29780322300000F09EFE002806D052
:104D64004023801B83402268013513432360297844
:104D7400062228486E1C217600F08EFE00283CD0C6
:104D8400254B002B25D10722079B07339343083378
:104D940007936369049A9B18636166E7434301219F
:104DA4009B183500A6E701235B42D0E700230A20C5
:104DB4001A000135636029786E1C3039092903D93A
:104DC400002BC5D00992C3E7424301235218350092
:104DD400F1E707AB00933A00104B2100039800E081
:104DE40000BF0490049B0133D3D1BB890D985B06AB
:104DF40000D42EE7012040422BE707AB00933A0092
:104E0400064B2100039800F043FAEAE72062000809
:104E1400266200082A62000800000000654B0008B2
:104E240070B514004B1C03D101256D42280070BDE0
:104E3400938920229343626BA381CEB2CDB263687F
:104E4400002A10D0A26B9A4207DD2368013B23603D
:104E54001E70636801336360E8E7210000F0DEFD43
:104E64000028F2D0E0E721692268002907D09142A6
:104E740005D2511E0878A84201D12160EAE72364D3
:104E84002300443363630323A36323004633E263B1
:104E94001E7023600123DEE710B50C00496B002966
:104EA4000ED023004433994201D0FFF70DFD0020BA
:104EB400236C60636360834202D0E36B236010BDA4
:104EC4002369012023600023A289636020331343F4
:104ED400A3814042F3E70000F0B517000022B04C74
:104EE400C025A5444892499205AA4A92BE220C00C4
:104EF400AC490090520045A88150AB496D00415126
:104F040004933B78002B00D148E1FFF797FC08227B
:104F14003B787E1CC01801934378134020D063680B
:104F2400002B14DDFFF78AFC082123681A78801807
:104F340042780A4201D13700E3E7499A01330192EA
:104F44000132499262682360013A6260E7E745AB47
:104F54005B5921000098019398470028E2D0EAE7C2
:104F6400019A252A6DD1479345937B782A2B02D148
:104F74001A3B4593BE1C37000A2239787B1C0293E6
:104F84000B00303B092B24D9884E0322300000F05B
:104F940083FD002807D00123801B8340459A029F8C
:104FA4001343039245933B787E1C672B35D8652BBE
:104FB40000D3B8E0472B14D8452B00D3B3E0002B23
:104FC40000D1E8E0252B3CD003234B9307334693D1
:104FD40066E0479B029F03935343303B5918479124
:104FE400CBE75B2B00D17AE010D8582BECD1459A53
:104FF40001928022019992000A434592102246921E
:105004006E229A429B415B42033348E0632B00D1FA
:1050140072E0642BD8D10A22F1E7702B35D008D87E
:105024006E2B00D170E037D8692BCDD10023469385
:10503400EAE7752BEFD0782BD9D0732BC4D1022398
:105044002DE06368002B0FDD236801991A788A42EA
:1050540000D0A3E0013362682360499B013A0193C5
:1050640001336260499366E745AB5B5921000098C0
:10507400029398470028E7D04898002800D086E09B
:105084000138A7239B009D44F0BD459A019220223C
:1050940001990A434592AAE708234693043B4B939C
:1050A4006368002B41DD459B01935B0608D4FFF741
:1050B400C5FB082123681A78801842780A423DD13A
:1050C4004B9B022B4FDC04AB220045A9009800F057
:1050D400E7F9012862D0022800D02CE7CCE73100A0
:1050E40005A800F045FB459B060001934023019A67
:1050F400134345930123D2E7459B01934023019A2F
:10510400134345930023CAE74598C30600D512E725
:10511400049B499A191D04911B68C70701D51A807D
:1051240009E71A6007E70523B9E745AB5B59210096
:105134000098019398470028B5D09DE7499A0192B9
:10514400013249926268013A6260002A02DD013349
:105154002360ACE745AB5B59210000980193984765
:105164000028A4D088E7042B06DC04AB220045A960
:10517400009800F0FBF9ACE70D4B002B00D1DAE608
:1051840004AB220045A9009800E000BFA1E7A38971
:105194005B0600D475E70120404272E7489870E747
:1051A40064FDFFFF254E00089D4E0008266200089E
:1051B40000000000F7B5150001938A680B690090A0
:1051C4000C00934200DA130022002B604332127861
:1051D400002A01D001332B6023689B0602D52B687B
:1051E40002332B60062723681F4027D02300433354
:1051F4001B785A1E93412268920630D422000199EA
:1052040043320098089EB047431C25D006232068EB
:105214002A68E16803400025042B03D18D1AEB436F
:10522400DB171D40A3682269934201DD9B1AED1828
:105234000027BD4220D1002010E00137E3682A682E
:105244009B1ABB42D2DD2200012319320199009836
:10525400089EB047431CF0D101204042FEBD3020DF
:10526400E1184331087021005A1C45310978A2180D
:10527400433202331170C1E7220001231A3201992B
:105284000098089EB047431CE6D00137D1E70000E0
:10529400F0B589B004920A00433205930390029258
:1052A4000A7E0C000E9B6E2A00D186E01FD8632A6A
:1052B40033D008D8002A00D18CE0582A4DD02500DC
:1052C40042352A7030E0642A01D0692AF7D119687E
:1052D40025680A1D280629D508681A60002803DAFB
:1052E4002D23029A404213706B4E0A274FE0732A13
:1052F40074D008D86F2A1FD0702AE0D12022096800
:105304000A43226003E0752A16D0782AD7D12200F6
:10531400782145321170614E22E025001A68423529
:10532400111D196013682B70012365E008681A6069
:105334006906D3D500B2D1E719682568081D18603D
:1053440008682E0605D5544E08276F2A1BD00A2755
:1053540019E06D06F7D580B2F5E745314E4E0A7077
:1053640018682268011D00681960150621D5D30745
:1053740002D520231A4322601027002803D12023BA
:1053840022689A4322602300002243331A70636820
:10539400A360002B58DB042221689143216000287C
:1053A40054D1029D002B5AD02500337842352B70FE
:1053B40055E05506DBD580B2D9E71A680D68101D93
:1053C4004969186013682E0601D5196002E06D065C
:1053D400FBD519800023029D23614FE01A68111D3B
:1053E4001960156800216268280000F055FB002848
:1053F40001D0401B6060636823610023029A13702C
:105404003CE023692A0004990398059DA847431C9E
:105414003ED023689B0715D4079BE068984239DA8D
:10542400180037E022000123193204990398059EDD
:10543400B047431C2CD00135E368079A9B1AAB4252
:10544400F0DCE9E70025F7E70028ADD0029D39003C
:10545400FAF73AFF735C013D2B700028F7D1082F4F
:1054640009D12368DB0706D563682269934202DC0D
:105474003023013D2B70029B5B1B2361059B07AA14
:1054840000932100049B0398FFF794FE431CB8D1BA
:105494000120404209B0F0BD3162000842620008B8
:1054A400F7B515008A6801900C00002A04D18A69B6
:1054B400002A17D10132A2602268D20603D41A68E6
:1054C400111D196017680026A369002B1FD0012B3A
:1054D4000BD12B6862691B78D35C002B17D1002E8B
:1054E40033D109E001225242E5E7022B06D0002E17
:1054F4002BD1A369012B28D10120FEBDFFF79EF912
:1055040008222B681B78C01843781342EFD110226D
:1055140023680136134203D12B681B783B70013793
:105524002A686B6801322A60A268013B013A6B6009
:10553400A260002A09D0002BC6DCC0235B00E3581C
:105544002900019898470028BED0102322681340F0
:1055540006D1E2680132E260A269002A00D03B7001
:10556400236900209E192661C7E70000F0B50C00EE
:105574008BB00293784B0490160007AA23CB23C266
:10558400764B0593A369032B01D1754B0593AE228A
:105594000020A3685200591E0390914205D95E3B36
:1055A400FF3B03935E23FF33A36023001C3301936B
:1055B400D023002722681B0113432360019B00931F
:1055C400336807A81978BB000222185800F064FA5F
:1055D40000282BD0012F62D16368002B06D1083339
:1055E40022686360F933FF33134323605D4B226801
:1055F40013402360A3685A1EA260002B16D03368A0
:105604005A1C32601B78009A13707368551C013B56
:105614007360002B09DCC0235B00E358310004985D
:1056240000939847002800D080E000950137032FAD
:10563400C6D16368002B01D10A33636010210027AF
:1056440063686069C91A484BC91800F091F8009D55
:10565400A36822680093002B41D0316863690878FD
:105664001B5C002B3BD0302829D180231B011A421C
:1056740025D0039B0137002B05D01A00009B013A6B
:1056840001330392A3607368013B7360002B1DDD3B
:10569400336801333360A368013BA360D8E7022F6A
:1056A400A8D1C02180232268C90011409B009942DF
:1056B400BFD1F13BFF3B6360F033134399E72B4BBE
:1056C400134023600B782B700135DCE7C0235B00AB
:1056D400E35831000498009398470028DBD02368EE
:1056E400DB050ED5019B9D4207D9BE23013D5B001E
:1056F4002978E358320004989847019B01209D4281
:1057040027D0102223681A401CD12A70636801999B
:105714000498059EB047029B21681B688A0607D53A
:105724001A1D02990A601B68186008E00027D6E772
:105734001A1DCE07F5D502990A601B681880E36824
:105744000133E3600020019BED1A2369EF19DF198F
:1057540027610BB0F0BDC046905E0008015A0008F6
:10576400D9580008FFFAFFFF53620008FFF6FFFF55
:1057740070B50B7805005E2B18D04A1C0021280058
:105784006C1CFF3401700130A042FBD1501E002B71
:105794000BD001204140E9541478501C2D2C0CD01E
:1057A4005D2C02D0002C05D1100070BD8A1C4B78F2
:1057B4000121E4E723000200EDE756785D2EF9D0DD
:1057C400B342F7DC02320133E9549E42FBDCE3E7E7
:1057D400F0B51F000E0087B00590019102920C985D
:1057E4003478FFF727F8082200194378751C134012
:1057F40036D12D2C36D1B51C74780126002F62D0F9
:10580400102F09D1302C07D120222B789343582B09
:1058140054D110276C7802352D4B3900F318180039
:105824000393FAF751FD0491012100234942020038
:105834008C4618002100303909291AD80C00A742D7
:1058440023DD591C09D06346824206D302D1049950
:10585400A14202DB0123784320182C780135E9E7C3
:105864002E00BCE72B2C01D01E00C7E7B51C7478B2
:10587400FAE721004139192901D8373CDFE7210033
:105884006139192901D8573CD9E75A1C08D1059A1E
:1058940023331360029B0398002B09D107B0F0BD9A
:1058A400002E00D04042029A002AF7D0002B01D0EB
:1058B4006B1E0193029B019A1A60EFE73024002FBC
:1058C400AAD10827A8E7302C9ED00A27A4E7C0460F
:1058D400FFFFFF7F13B5054C2468246A002C00D118
:1058E400034C0094FFF774FF16BDC0460800002067
:1058F4006C000020F0B51F000E0085B003900191EC
:1059040002920A983478FEF795FF0822001943782A
:10591400751C134038D12D2C38D17478B51C013343
:105924000093002F65D0102F09D1302C07D12022ED
:105934002B789343582B57D110276C7802350120CC
:1059440039004042FAF73AFC06000120390040428F
:10595400FAF7BAFC002301228C46180052422100B7
:105964003039092917D80C00A74222DD002B1EDB91
:105974001300864205D301D1A44502DB01237843F9
:1059840020182C780135EAE72E00BAE72B2CC7D172
:10599400B51C7478C4E721004139192901D8373C72
:1059A400E2E721006139192903D8573CDCE71300E9
:1059B400E7E7002B09DA22230120039A404213600F
:1059C400029B002B0AD105B0F0BD009A002A00D03A
:1059D4004042029A002AF6D0002B01D06B1E01939C
:1059E400029B019A1A60EEE73024002FA7D1082702
:1059F400A5E7302C9BD00A27A1E7000013B5054C7E
:105A04002468246A002C00D1034C0094FFF772FF31
:105A140016BDC046080000206C0000200B00F7B53E
:105A24004D6B44330C009D421CD18026F60031009E
:105A3400FEF794FF002802D101204042FEBD23005E
:105A44006063A66346331A78104BC254230045336F
:105A54001A780F4BC2542A780E4BC254C0182060D7
:105A64000020EBE78E6B290073001A00019300F00D
:105A740031F8051EE0D08719010032003800FEF726
:105A840011FF019B27606563A363E9E7FF0300003F
:105A9400FE030000FD030000C9B28218904201D148
:105AA4000020704703788B42FBD00130F6E710B535
:105AB400884202D98B18984203D3002307E08B5CF9
:105AC4008354013AFBD210BDCC5CC45401339A42D6
:105AD400FAD1F8E7F8B507000D001600002905D142
:105AE4001100FEF73BFF04002000F8BD002A03D19B
:105AF400FEF7EAFE3400F7E700F012F82C00B0429B
:105B0400F2D231003800FEF729FF041EECD0290040
